{
  "address": "0x8b56001485d5d47A97f1B7b53b3B3734bA3b2FBD",
  "abi": [
    {
      "inputs": [
        {
          "internalType": "uint64",
          "name": "subscriptionId",
          "type": "uint64"
        }
      ],
      "stateMutability": "nonpayable",
      "type": "constructor"
    },
    {
      "inputs": [
        {
          "internalType": "address",
          "name": "have",
          "type": "address"
        },
        {
          "internalType": "address",
          "name": "want",
          "type": "address"
        }
      ],
      "name": "OnlyCoordinatorCanFulfill",
      "type": "error"
    },
    {
      "anonymous": false,
      "inputs": [
        {
          "indexed": true,
          "internalType": "address",
          "name": "from",
          "type": "address"
        },
        {
          "indexed": true,
          "internalType": "address",
          "name": "to",
          "type": "address"
        }
      ],
      "name": "OwnershipTransferRequested",
      "type": "event"
    },
    {
      "anonymous": false,
      "inputs": [
        {
          "indexed": true,
          "internalType": "address",
          "name": "from",
          "type": "address"
        },
        {
          "indexed": true,
          "internalType": "address",
          "name": "to",
          "type": "address"
        }
      ],
      "name": "OwnershipTransferred",
      "type": "event"
    },
    {
      "anonymous": false,
      "inputs": [
        {
          "indexed": false,
          "internalType": "uint256",
          "name": "requestId",
          "type": "uint256"
        },
        {
          "indexed": false,
          "internalType": "uint256[]",
          "name": "randomWords",
          "type": "uint256[]"
        }
      ],
      "name": "RequestFulfilled",
      "type": "event"
    },
    {
      "anonymous": false,
      "inputs": [
        {
          "indexed": false,
          "internalType": "uint256",
          "name": "requestId",
          "type": "uint256"
        },
        {
          "indexed": false,
          "internalType": "uint32",
          "name": "numWords",
          "type": "uint32"
        }
      ],
      "name": "RequestSent",
      "type": "event"
    },
    {
      "inputs": [],
      "name": "acceptOwnership",
      "outputs": [],
      "stateMutability": "nonpayable",
      "type": "function"
    },
    {
      "inputs": [
        {
          "internalType": "uint256",
          "name": "_requestId",
          "type": "uint256"
        }
      ],
      "name": "getRequestStatus",
      "outputs": [
        {
          "internalType": "bool",
          "name": "fulfilled",
          "type": "bool"
        },
        {
          "internalType": "uint256[]",
          "name": "randomWords",
          "type": "uint256[]"
        }
      ],
      "stateMutability": "view",
      "type": "function"
    },
    {
      "inputs": [],
      "name": "lastRequestId",
      "outputs": [
        {
          "internalType": "uint256",
          "name": "",
          "type": "uint256"
        }
      ],
      "stateMutability": "view",
      "type": "function"
    },
    {
      "inputs": [],
      "name": "owner",
      "outputs": [
        {
          "internalType": "address",
          "name": "",
          "type": "address"
        }
      ],
      "stateMutability": "view",
      "type": "function"
    },
    {
      "inputs": [
        {
          "internalType": "uint256",
          "name": "requestId",
          "type": "uint256"
        },
        {
          "internalType": "uint256[]",
          "name": "randomWords",
          "type": "uint256[]"
        }
      ],
      "name": "rawFulfillRandomWords",
      "outputs": [],
      "stateMutability": "nonpayable",
      "type": "function"
    },
    {
      "inputs": [
        {
          "internalType": "uint256",
          "name": "",
          "type": "uint256"
        }
      ],
      "name": "requestIds",
      "outputs": [
        {
          "internalType": "uint256",
          "name": "",
          "type": "uint256"
        }
      ],
      "stateMutability": "view",
      "type": "function"
    },
    {
      "inputs": [],
      "name": "requestRandomWords",
      "outputs": [
        {
          "internalType": "uint256",
          "name": "requestId",
          "type": "uint256"
        }
      ],
      "stateMutability": "nonpayable",
      "type": "function"
    },
    {
      "inputs": [
        {
          "internalType": "uint256",
          "name": "",
          "type": "uint256"
        }
      ],
      "name": "s_requests",
      "outputs": [
        {
          "internalType": "bool",
          "name": "fulfilled",
          "type": "bool"
        },
        {
          "internalType": "bool",
          "name": "exists",
          "type": "bool"
        }
      ],
      "stateMutability": "view",
      "type": "function"
    },
    {
      "inputs": [
        {
          "internalType": "address",
          "name": "to",
          "type": "address"
        }
      ],
      "name": "transferOwnership",
      "outputs": [],
      "stateMutability": "nonpayable",
      "type": "function"
    }
  ],
  "transactionHash": "0xff8cc3f6b275ff2e8e8ac18fbb8f00f30959403e93e18897501730b033e87f75",
  "args": [
    8801
  ],
  "numDeployments": 1,
  "solcInputHash": "56eb49356fa1c9d558888234aefe5444",
  "bytecode": "0x60a06040527f474e34a077df58807dbe9c96d3c009b23b3c6d0cce433e59bbf5b34f823bc56c600655600780546001600160501b03191666020003000186a017905534801561004d57600080fd5b50604051610cae380380610cae83398101604081905261006c916101f9565b738103b0a8a00be2ddc778e6e7eaa21791cd36462560805233806000816100da5760405162461bcd60e51b815260206004820152601860248201527f43616e6e6f7420736574206f776e657220746f207a65726f000000000000000060448201526064015b60405180910390fd5b600080546001600160a01b0319166001600160a01b038481169190911790915581161561010a5761010a81610150565b5050600380546001600160401b03909316600160a01b026001600160e01b031990931692909217738103b0a8a00be2ddc778e6e7eaa21791cd3646251790915550610229565b336001600160a01b038216036101a85760405162461bcd60e51b815260206004820152601760248201527f43616e6e6f74207472616e7366657220746f2073656c6600000000000000000060448201526064016100d1565b600180546001600160a01b0319166001600160a01b0383811691821790925560008054604051929316917fed8889f560326eb138920d842192f0eb3dd22b4f139c87a2c57538e05bae12789190a350565b60006020828403121561020b57600080fd5b81516001600160401b038116811461022257600080fd5b9392505050565b608051610a6361024b6000396000818161019901526101f40152610a636000f3fe608060405234801561001057600080fd5b50600436106100a35760003560e01c8063a168fa8911610076578063e0c862891161005b578063e0c862891461016a578063f2fde38b14610172578063fc2a88c31461018557600080fd5b8063a168fa8914610106578063d8a4676f1461014957600080fd5b80631fe543e3146100a857806379ba5097146100bd5780638796ba8c146100c55780638da5cb5b146100eb575b600080fd5b6100bb6100b6366004610889565b61018e565b005b6100bb610234565b6100d86100d3366004610953565b6102f2565b6040519081526020015b60405180910390f35b6000546040516001600160a01b0390911681526020016100e2565b610132610114366004610953565b60026020526000908152604090205460ff8082169161010090041682565b6040805192151583529015156020830152016100e2565b61015c610157366004610953565b610313565b6040516100e29291906109a8565b6100d8610413565b6100bb6101803660046109cb565b610602565b6100d860055481565b336001600160a01b037f00000000000000000000000000000000000000000000000000000000000000001614610226576040517f1cf993f40000000000000000000000000000000000000000000000000000000081523360048201526001600160a01b037f00000000000000000000000000000000000000000000000000000000000000001660248201526044015b60405180910390fd5b6102308282610616565b5050565b6001546001600160a01b0316331461028e5760405162461bcd60e51b815260206004820152601660248201527f4d7573742062652070726f706f736564206f776e657200000000000000000000604482015260640161021d565b600080543373ffffffffffffffffffffffffffffffffffffffff19808316821784556001805490911690556040516001600160a01b0390921692909183917f8be0079c531659141344cd1fd0a4f28419497f9722a3daafe3b4186f6b6457e091a350565b6004818154811061030257600080fd5b600091825260209091200154905081565b600081815260026020526040812054606090610100900460ff166103795760405162461bcd60e51b815260206004820152601160248201527f72657175657374206e6f7420666f756e64000000000000000000000000000000604482015260640161021d565b60008381526002602090815260408083208151606081018352815460ff80821615158352610100909104161515818501526001820180548451818702810187018652818152929593948601938301828280156103f457602002820191906000526020600020905b8154815260200190600101908083116103e0575b5050505050815250509050806000015181604001519250925050915091565b600061041d6106e8565b6003546006546007546040517f5d3b1d30000000000000000000000000000000000000000000000000000000008152600481019290925274010000000000000000000000000000000000000000830467ffffffffffffffff166024830152640100000000810461ffff16604483015263ffffffff808216606484015266010000000000009091041660848201526001600160a01b0390911690635d3b1d309060a4016020604051808303816000875af11580156104de573d6000803e3d6000fd5b505050506040513d601f19601f8201168201806040525081019061050291906109fb565b6040805160608101825260008082526001602080840182815285518481528083018752858701908152878552600283529590932084518154945161ffff1990951690151561ff0019161761010094151594909402939093178355935180519596509294919361057793918501929101906107fa565b5050600480546001810182556000919091527f8a35acfbc15ff81a39ae7d344fd709f28e8600b4aa8c65c6b64bfe7fe36bd19b0182905550600581905560075460408051838152660100000000000090920463ffffffff1660208301527fcc58b13ad3eab50626c6a6300b1d139cd6ebb1688a7cced9461c2f7e762665ee910160405180910390a190565b61060a6106e8565b61061381610744565b50565b600082815260026020526040902054610100900460ff166106795760405162461bcd60e51b815260206004820152601160248201527f72657175657374206e6f7420666f756e64000000000000000000000000000000604482015260640161021d565b6000828152600260209081526040909120805460ff19166001908117825583516106aa9392909101918401906107fa565b507ffe2e2d779dba245964d4e3ef9b994be63856fd568bf7d3ca9e224755cb1bd54d82826040516106dc929190610a14565b60405180910390a15050565b6000546001600160a01b031633146107425760405162461bcd60e51b815260206004820152601660248201527f4f6e6c792063616c6c61626c65206279206f776e657200000000000000000000604482015260640161021d565b565b336001600160a01b0382160361079c5760405162461bcd60e51b815260206004820152601760248201527f43616e6e6f74207472616e7366657220746f2073656c66000000000000000000604482015260640161021d565b6001805473ffffffffffffffffffffffffffffffffffffffff19166001600160a01b0383811691821790925560008054604051929316917fed8889f560326eb138920d842192f0eb3dd22b4f139c87a2c57538e05bae12789190a350565b828054828255906000526020600020908101928215610835579160200282015b8281111561083557825182559160200191906001019061081a565b50610841929150610845565b5090565b5b808211156108415760008155600101610846565b7f4e487b7100000000000000000000000000000000000000000000000000000000600052604160045260246000fd5b6000806040838503121561089c57600080fd5b8235915060208084013567ffffffffffffffff808211156108bc57600080fd5b818601915086601f8301126108d057600080fd5b8135818111156108e2576108e261085a565b8060051b604051601f19603f830116810181811085821117156109075761090761085a565b60405291825284820192508381018501918983111561092557600080fd5b938501935b828510156109435784358452938501939285019261092a565b8096505050505050509250929050565b60006020828403121561096557600080fd5b5035919050565b60008151808452602080850194506020840160005b8381101561099d57815187529582019590820190600101610981565b509495945050505050565b82151581526040602082015260006109c3604083018461096c565b949350505050565b6000602082840312156109dd57600080fd5b81356001600160a01b03811681146109f457600080fd5b9392505050565b600060208284031215610a0d57600080fd5b5051919050565b8281526040602082015260006109c3604083018461096c56fea2646970667358221220f6cd48017e24d7d50918cf99b48d76ab2b3ae26f2181da80d789b55503bebf7564736f6c63430008170033",
  "devdoc": {
    "kind": "dev",
    "methods": {},
    "version": 1
  },
  "userdoc": {
    "kind": "user",
    "methods": {
      "acceptOwnership()": {
        "notice": "Allows an ownership transfer to be completed by the recipient."
      },
      "owner()": {
        "notice": "Get the current owner"
      },
      "transferOwnership(address)": {
        "notice": "Allows an owner to begin transferring ownership to a new address, pending."
      }
    },
    "version": 1
  },
  "storageLayout": {
    "storage": [
      {
        "astId": 169,
        "contract": "contracts/RandomNumberConsumerV2.sol:VRFv2Consumer",
        "label": "s_owner",
        "offset": 0,
        "slot": "0",
        "type": "t_address"
      },
      {
        "astId": 171,
        "contract": "contracts/RandomNumberConsumerV2.sol:VRFv2Consumer",
        "label": "s_pendingOwner",
        "offset": 0,
        "slot": "1",
        "type": "t_address"
      },
      {
        "astId": 14594,
        "contract": "contracts/RandomNumberConsumerV2.sol:VRFv2Consumer",
        "label": "s_requests",
        "offset": 0,
        "slot": "2",
        "type": "t_mapping(t_uint256,t_struct(RequestStatus)14589_storage)"
      },
      {
        "astId": 14597,
        "contract": "contracts/RandomNumberConsumerV2.sol:VRFv2Consumer",
        "label": "COORDINATOR",
        "offset": 0,
        "slot": "3",
        "type": "t_contract(VRFCoordinatorV2Interface)141"
      },
      {
        "astId": 14599,
        "contract": "contracts/RandomNumberConsumerV2.sol:VRFv2Consumer",
        "label": "s_subscriptionId",
        "offset": 20,
        "slot": "3",
        "type": "t_uint64"
      },
      {
        "astId": 14602,
        "contract": "contracts/RandomNumberConsumerV2.sol:VRFv2Consumer",
        "label": "requestIds",
        "offset": 0,
        "slot": "4",
        "type": "t_array(t_uint256)dyn_storage"
      },
      {
        "astId": 14604,
        "contract": "contracts/RandomNumberConsumerV2.sol:VRFv2Consumer",
        "label": "lastRequestId",
        "offset": 0,
        "slot": "5",
        "type": "t_uint256"
      },
      {
        "astId": 14607,
        "contract": "contracts/RandomNumberConsumerV2.sol:VRFv2Consumer",
        "label": "keyHash",
        "offset": 0,
        "slot": "6",
        "type": "t_bytes32"
      },
      {
        "astId": 14610,
        "contract": "contracts/RandomNumberConsumerV2.sol:VRFv2Consumer",
        "label": "callbackGasLimit",
        "offset": 0,
        "slot": "7",
        "type": "t_uint32"
      },
      {
        "astId": 14613,
        "contract": "contracts/RandomNumberConsumerV2.sol:VRFv2Consumer",
        "label": "requestConfirmations",
        "offset": 4,
        "slot": "7",
        "type": "t_uint16"
      },
      {
        "astId": 14616,
        "contract": "contracts/RandomNumberConsumerV2.sol:VRFv2Consumer",
        "label": "numWords",
        "offset": 6,
        "slot": "7",
        "type": "t_uint32"
      }
    ],
    "types": {
      "t_address": {
        "encoding": "inplace",
        "label": "address",
        "numberOfBytes": "20"
      },
      "t_array(t_uint256)dyn_storage": {
        "base": "t_uint256",
        "encoding": "dynamic_array",
        "label": "uint256[]",
        "numberOfBytes": "32"
      },
      "t_bool": {
        "encoding": "inplace",
        "label": "bool",
        "numberOfBytes": "1"
      },
      "t_bytes32": {
        "encoding": "inplace",
        "label": "bytes32",
        "numberOfBytes": "32"
      },
      "t_contract(VRFCoordinatorV2Interface)141": {
        "encoding": "inplace",
        "label": "contract VRFCoordinatorV2Interface",
        "numberOfBytes": "20"
      },
      "t_mapping(t_uint256,t_struct(RequestStatus)14589_storage)": {
        "encoding": "mapping",
        "key": "t_uint256",
        "label": "mapping(uint256 => struct VRFv2Consumer.RequestStatus)",
        "numberOfBytes": "32",
        "value": "t_struct(RequestStatus)14589_storage"
      },
      "t_struct(RequestStatus)14589_storage": {
        "encoding": "inplace",
        "label": "struct VRFv2Consumer.RequestStatus",
        "members": [
          {
            "astId": 14583,
            "contract": "contracts/RandomNumberConsumerV2.sol:VRFv2Consumer",
            "label": "fulfilled",
            "offset": 0,
            "slot": "0",
            "type": "t_bool"
          },
          {
            "astId": 14585,
            "contract": "contracts/RandomNumberConsumerV2.sol:VRFv2Consumer",
            "label": "exists",
            "offset": 1,
            "slot": "0",
            "type": "t_bool"
          },
          {
            "astId": 14588,
            "contract": "contracts/RandomNumberConsumerV2.sol:VRFv2Consumer",
            "label": "randomWords",
            "offset": 0,
            "slot": "1",
            "type": "t_array(t_uint256)dyn_storage"
          }
        ],
        "numberOfBytes": "64"
      },
      "t_uint16": {
        "encoding": "inplace",
        "label": "uint16",
        "numberOfBytes": "2"
      },
      "t_uint256": {
        "encoding": "inplace",
        "label": "uint256",
        "numberOfBytes": "32"
      },
      "t_uint32": {
        "encoding": "inplace",
        "label": "uint32",
        "numberOfBytes": "4"
      },
      "t_uint64": {
        "encoding": "inplace",
        "label": "uint64",
        "numberOfBytes": "8"
      }
    }
  }
}